:020000040001F9
:10C00000684D00208DC4010095C4010097C4010053
:10C0100099C401009BC401009DC401000000000000
:10C020000000000000000000000000009FC40100AC
:10C03000A1C4010000000000A3C40100A5C40100C8
:10C04000A7C40100A7C4010095CC0100A7C401004A
:10C05000A7C40100A7C4010011C60100A7C40100C4
:10C06000A7C40100A7C40100A7C40100A7C4010020
:10C07000A7C40100A7C40100A7C40100A7C4010010
:10C08000A7C4010039C80100A7C40100A7C401006A
:10C09000F7C90100A7C4010001CA0100A7C401003B
:10C0A000A7C40100A7C40100A7C40100A7C40100E0
:10C0B000A7C40100A7C401000000000000000000A8
:10C0C000A7C40100A7C40100A7C40100A7C40100C0
:10C0D000A7C40100A7C40100A7C40100000000001C
:10C0E0000000000000000000000000000000000050
:10C0F0000000000000000000000000000000000040
:10C10000000000000000000000000000000000002F
:10C11000000000000000000000000000000000001F
:10C40000DFF80CD000F0B6F800480047FD0B020042
:10C41000684D0020401E00BF00BF00BF00BF00BF2E
:10C4200000BF00BF00BF00BF00BF00BF00BF00BF14
:10C4300000BF00BF00BF00BF00BF00BF00BF00BF04
:10C4400000BF00BF00BF00BF00BF00BF00BF00BFF4
:10C4500000BF00BF00BF00BF00BF00BF00BF00BFE4
:10C4600000BF00BF00BF00BF00BF00BF00BF00BFD4
:10C4700000BF00BF00BF00BF00BF00BF00BF00BFC4
:10C4800000BF00BF00BFC5D170470000064880470D
:10C4900006480047FEE7FEE7FEE7FEE7FEE7FEE7A9
:10C4A000FEE7FEE7FEE7FEE749CA010001C401001E
:10C4B00040EA01039B0703D009E008C9121F08C026
:10C4C000042AFAD203E011F8013B00F8013B521EA6
:10C4D000F9D27047D2B201E000F8012B491EFBD21D
:10C4E00070470022F6E710B513460A46044619467F
:10C4F000FFF7F0FF204610BD30B50446002003468C
:10C5000000E05B1C934203D2E05CCD5C401BF8D0A2
:10C5100030BD2DE9F05F0546002092469B468846D7
:10C520000646814640241BE02846414647462246AF
:10C5300000F041F853465A46C01A914110D31146B3
:10C540001846224600F028F82D1A67EB01084F46DE
:10C5500022460120002100F01FF817EB00094E4190
:10C56000201EA4F10104DFDC484631462A4643463A
:10C57000BDE8F09F064C074D06E0E06840F001037F
:10C5800094E8070098471034AC42F6D3FFF73CFF1D
:10C590007834020098340200202A04DB203A00FAA2
:10C5A00002F1002070479140C2F1200320FA03F30A
:10C5B000194390407047202A04DB203A21FA02F008
:10C5C0000021704721FA02F3D040C2F120029140CD
:10C5D00008431946704730B58C1810F8012B12F03B
:10C5E0000F0301D110F8013B120906D110F8012BFD
:10C5F00003E010F8015B01F8015B5B1EF9D101E07B
:10C6000001F8013B521EFBD1A142E6D3002030BD10
:10C610002DE9F04F87B00027BA464FF4807006909E
:10C620000125002412E0069804F020FE40B100BF6E
:10C6300060480068284018B1069804F009FE2F43AE
:10C640006D000698001D80B20690641C082CEAD389
:10C650004FF4BE7004F00AFE48B14FF4BE7004F00F
:10C66000F7FD47F0004700BF534800688246F8B224
:10C67000F8B1012500241AE005EA0700A8B100BFBF
:10C680004E4850F82400C0F30420064600BF4B4833
:10C6900050F82400C0F301408046204602F0B8F96B
:10C6A000814641463046C84700BF6D00641C082CD7
:10C6B000E2D307F00040002879D04FF0000B0020B3
:10C6C0000590401E049000BF4FF0000B002457E07F
:10C6D0003B48005D0390039820F0C006384800579F
:10C6E000401C00284BD00120B0400499084000288D
:10C6F00045D003984FEA9019304602F0D1F98046B0
:10C7000002F086F90290029810B9B9F1030F35D101
:10C71000012000FA06F5B9F1030F02D1059828436C
:10C72000059000BF274850F82600C0F3014800BF1D
:10C7300005EA0A0010B1B8F1020F05D005EA0A00B7
:10C74000D8B9B8F1030F18D1B9F1030F0FD1B8F16F
:10C75000020F01D1032000E0022001903046019930
:10C7600004F05EFD0BF1010000F0FF0B00BF02982A
:10C7700018B149463046029A904700BF00BF641C7A
:10C78000042CA5D3BBF1000F0DD000BF0A490968E6
:10C790000846504503D14FF0000B03E007E0824606
:10C7A0000599049100BFBBF1000F8DD100BF07B008
:10C7B000BDE8F08F04630040100500501065004094
:10C7C000A42700200007005000F01F020121914023
:10C7D000024A430942F823107047000080E200E05B
:10C7E00000F01F02012191404209920002F1E02273
:10C7F000C2F800117047000000F01F0201219140B3
:10C80000024A430942F823107047000000E200E0AA
:10C8100010B5002807DA4A07140E054A00F00F0386
:10C820001B1FD45403E04A07130E024A135410BDD1
:10C8300018ED00E000E400E010B5002009490860B0
:10C8400000210948C0F84411C0F84811C0F84C1143
:10C8500000200549C1F8000102493C39086006F092
:10C86000D5F910BD40110140001001402DE9F047FD
:10C8700004468946164600F019FA04EB440156486E
:10C8800000EBC100007D00F00300022827D004EB7C
:10C890004401514800EBC100D0F8108004EB440182
:10C8A0004D4800EBC100C068A8EB0000451E002DFC
:10C8B00006DA04EB4401484800EBC10080680544F7
:10C8C000AE420CDD04EB4401434800EBC100007DA7
:10C8D00000F0030010B90020BDE8F0872E460EB925
:10C8E0000020F9E7002700BF04EB44013A4800EBC1
:10C8F000C100D0F8108004EB4401374800EBC100C0
:10C90000C068A8EB0000451E002D06DA04EB4401C8
:10C91000314800EBC1008068054404EB44012E4817
:10C9200000EBC10004EB440281682B4800EBC2001D
:10C93000C068081AA84201DD28460CE004EB440157
:10C94000254800EBC10004EB44028168224800EB5B
:10C95000C200C068081A0546B54201DA284600E060
:10C960003046054604EB44021B4901EBC20104EBCF
:10C9700044034A68184901EBC301C96850182A46A4
:10C980004946FFF795FD2F44A944761B04EB44016B
:10C99000114800EBC100C068411904EB44020E4885
:10C9A00000EBC200C16004EB44010B4800EBC10086
:10C9B000C16804EB4402084800EBC2008068814271
:10C9C00006D1002104EB4402034800EBC200C16021
:10C9D000002E89D138467FE79C21002070B505469E
:10C9E0000C46204600F0EDFA06463246214628461F
:10C9F000FFF73CFF70BD10B506F020F810BD000039
:10CA000070B50B48006880B109480068804704464B
:10CA100000BF25463DB100BF064A4FF4B37128461A
:10CA200000F0DBFC00BF00BF01E003F009FF70BDB8
:10CA30006C2100201434020001480249086070474C
:10CA40000090D0030022002010B503F04FFB10B17E
:10CA500082488349486703F061FB28B18148006838
:10CA6000C0F342308049086003F082FB28B17F4860
:10CA7000006820F080707D49086003F091FB48B1A8
:10CA800000207B4908604FF08041C1F810017649D1
:10CA9000091F086003F0AEFB18B10320724964312E
:10CAA000086003F0BFFB68B10520724908600120EF
:10CAB00070497831086000206E49083108603F20D5
:10CAC000091F086003F0C6FB002855D06A480068BB
:10CAD0006A4908606848001D0068091D08606648CA
:10CAE00008300068091D086063480C300068091DA3
:10CAF0000860614810300068091D08605E48143005
:10CB00000068091D08605C48183000685B492031E6
:10CB1000086059481C300068091D086056482030DC
:10CB20000068091D0860544824300068091D086029
:10CB3000514828300068091D08604F482C300068B3
:10CB4000091D08604C48303000684C49403108608D
:10CB5000494834300068091D08604748383000688B
:10CB6000091D086044483C300068091D08604248BF
:10CB700040300068091D086003F08EFA30B1394872
:10CB80001430006800F04F003D49086037487438A1
:10CB9000006840F4700035497439086000BF00BF78
:10CBA00000BFBFF34F8F00BF00BF00BF00BF00BF7B
:10CBB00000BFBFF36F8F00BF00BF00BF31480068E8
:10CBC00000F0004030B92F48001D006800F0004020
:10CBD000002840D001202C49086000BF2B48006885
:10CBE0000028FBD015202749086000BF27480068AF
:10CBF0000028FBD015212348001D016000BF2348F9
:10CC000000680028FBD000201F49086000BF1F48B3
:10CC100000680028FBD000BF00BF00BF00BF00BFFE
:10CC2000BFF34F8F00BF00BF00BF1048F03800684F
:10CC300000F4E06016490843001D0C49F039086013
:10CC400000BF00BF00BFBFF34F8F00BF00BF00BFDA
:10CC500000BF00BFFDE7FFF7EFFE10BD0DF0ADBA5E
:10CC600000C00740440200103C050040FCED00E01D
:10CC70000C010040105600400404001020C5004084
:10CC8000E40E00400012001004E5014000E4014001
:10CC90000000FA0510B50448007F10B106F04AF90B
:10CCA00001E006F097F810BDAC27002070470000A7
:10CCB0000FB4084B10B504A902AA039800F01CF8A1
:10CCC000044602A9002000F077F9204610BC5DF868
:10CCD00014FB0000B9CF010002E008C8121F08C110
:10CCE000002AFAD170477047002001E001C1121FED
:10CCF000002AFBD1704700002DE9FF4F8DB09B4605
:10CD00000F460446002606E025280BD05A460F9908
:10CD10009047641C761C20780028F5D111B030466D
:10CD2000BDE8F08F0025A8460122984900E00543A0
:10CD300014F8013F203B02FA03F00842F7D12078B3
:10CD40002E2817D114F8010F45F004052A280ED01B
:10CD50006FF02F022078A0F1300109290AD808EBE2
:10CD6000880102EB410100EB0108641CF2E757F86F
:10CD7000048B641C20786C280DD004DC4C2812D065
:10CD80006A2811D104E074280DD07A280CD10AE069
:10CD900045F4001507E0617845F48015814202D121
:10CDA000641C05F58015641C2278692A45D008DCCE
:10CDB000002AB3D0582A69D0632A10D0642A08D137
:10CDC0003BE0702A67D0732A13D0752A5CD0782A8A
:10CDD0005CD010465A460F999047761CD3E017F85E
:10CDE000040B8DF8000000208DF80100E9460120B9
:10CDF00003E057F8049B4FF0FF3069074FF0000540
:10CE000001D40AE06D1C45450DDA8542FADB19F8BC
:10CE100005100029F6D106E06D1C8542FCDB19F8EF
:10CE200005100029F8D12E4404E019F8010B5A46E8
:10CE30000F9990476D1EF8D2A5E00A200021CDE998
:10CE40000801C5F3025002280DD001CFC117031EFF
:10CE500071F100030DDA4FF0000CD0EB0C006CEB1D
:10CE600001012D2308E0FF1D27F00707F7E8020165
:10CE7000EDE72B0504D52B238DF8283001233BE06B
:10CE8000EB0739D02023F7E70A2000E0102000212B
:10CE9000CDE9080107E01020002145F00405CDE9A7
:10CEA00008014FF00808C5F3025002280FD001CF47
:10CEB00000214FF0000A2B071FD5702A0DD0DDE9A5
:10CEC00008C38CF0100C5CEA030C0CD015E0FF1DBD
:10CED00027F00707F7E80201EBE740228DF828204A
:10CEE0004FF0010A0BE050EA010306D030238DF821
:10CEF00028308DF8292002239A46582A04D024A2EB
:10CF00000DF120090B9209E026A2F9E7DDE90823DB
:10CF1000FFF7FFFA0B9B9B5C09F8013D50EA010209
:10CF2000F4D1ADEB090020300890680701D44FF030
:10CF300001080899884502DDA8EB010000E0002007
:10CF40008046002506E00AA85A46405D0F999047A2
:10CF50006D1C761C5545F6DB04E030205A460F99CF
:10CF60009047761CB8F10001A8F10108F5DC05E056
:10CF700019F8010B5A460F999047761C0899481EDC
:10CF800008900029F4DC641CC5E6000009280100B3
:10CF9000303132333435363738396162636465662F
:10CFA00000000000303132333435363738394142F1
:10CFB00043444546000000000A68531C0B60107093
:10CFC00070470146002209B90020704700BF087869
:10CFD00000B902E0521C491CF9E700BF1046F4E713
:10CFE0002DE9FC4104468846164600253788002076
:10CFF0003080606B68B1616B08783B4632464146D1
:10D0000005F0ACF9054600BF15B12846BDE8FC8126
:10D0100000BF206B58B13B4632464146206B05F0BD
:10D0200067FE054600BF0DB12846EFE700BF94F844
:10D030002E0060B194F82E003B463246414603F084
:10D04000C5FC054600BF0DB12846DFE700BF94F8D8
:10D050002D0050B13A463146404600F0C2FE05462A
:10D0600000BF0DB12846D1E700BFA07850B13A46C5
:10D070003146404600F002FB054600BF0DB1284690
:10D08000C4E700BFE07860B1E17848B23B46324681
:10D09000414603F023F9054600BF0DB12846B5E728
:10D0A00000BF606868B1616891F900003B46324694
:10D0B000414605F073FE054600BF0DB12846A5E7C1
:10D0C00000BF208900280EDD43460622022104F11C
:10D0D0000800CDE9006706F065F8054600BF0DB110
:10D0E000284693E700BF208A00280EDD434607222A
:10D0F000032104F11000CDE9006706F053F805465E
:10D1000000BF0DB1284681E700BF208B00280EDD4F
:10D1100043461522142104F11800CDE9006706F0FA
:10D1200041F8054600BF0DB128466FE700BF206AF1
:10D1300058B13B4632464146206A01F0A0FE054602
:10D1400000BF0DB1284661E700BF606A58B13B4699
:10D1500032464146606A03F09BFD054600BF0DB1B3
:10D16000284653E700BF94F82C0000280BDD3B460F
:10D1700032464146204605F00CF9054600BF0DB188
:10D18000284643E700BF207858B13B463246414627
:10D19000204603F08FFE054600BF0DB1284635E757
:10D1A00000BF284632E70146C87800F0040008B9FD
:10D1B000072070470020FCE710B501220221002063
:10D1C00001F038F8044600BF1CB1072C01D02046FE
:10D1D00010BD00BF07220221012001F02BF80446F8
:10D1E00000BF1CB1072C01D02046F1E700BF0A2286
:10D1F0000021084601F01EF8044600BF1CB1072CB0
:10D2000001D02046E4E700BF0020E1E730B5A1B03F
:10D2100038212448FFF765F906202249C8702421E7
:10D2200018A8FFF75EF901208DF86C004FF4967096
:10D230001C90B4201D904C20ADF854001A49179151
:10D240001720ADF8580015A8164948624C20ADF8D3
:10D25000480016A103C9CDE9100110A914910520B9
:10D26000ADF84C00382102A8FFF73BF902208DF8F9
:10D27000080012A80B9000200E4B18AA02A90090DB
:10D28000084800F06FFA044600BF25463DB100BFD4
:10D2900009A240F25621284600F09FF800BF00BFC7
:10D2A00021B030BD04220020852000206E616D6514
:10D2B00000000000F91202002E2E5C2E2E5C2E2E95
:10D2C0005C6D61696E2E6300014600BF064A1068FE
:10D2D0004FF400228243044B1B1D1A6000F400220D
:10D2E0001B1D1A6000BF70470405005010B50024D4
:10D2F00007E00749096811F83400012103F074FEC2
:10D30000641C044800788442F3D3002010BD000060
:10D3100034210020382100202DE9F84306460C4630
:10D320001746052F02D20720BDE8F88303F05CFF03
:10D3300038B903F02FFF054600BF0DB12846F3E7CB
:10D3400000BF1648066016480470164807600020A3
:10D35000154908601549086015E006EBC408144833
:10D360000068009098F802008DF8010098F800001D
:10D37000104A694603F094FE054600BF0DB12846E9
:10D38000D2E700BF00BF201EA4F10101CCB2E4D15E
:10D39000094A0021094800F0B1F8C5E7342100200E
:10D3A000382100203C210020402100204421002081
:10D3B000C4330200590702008DF10100C03302009E
:10D3C00070B504460D4616460C2000F061FF32464B
:10D3D0002946204600F012F870BDFEB504460E4600
:10D3E0001546B0B2ADF80000019502946A460021DE
:10D3F00044F20100FFF7E4FFFEBD000018B5012371
:10D4000000939DF800301E4B186059609A606FF4CD
:10D410008043034463B1012B19D1194BDA60DB68F7
:10D420001B88174CA3612346DB685B68E3610EE051
:10D43000134B1A611B699B68114C636123461B697E
:10D440001B88A36123461B695B68E36100BF00BFC3
:10D450000B4B1B680A4B5B68094B9B68084BDB68EE
:10D46000074B1B69064B5B69054B9B69044BDB69EA
:10D4700072B600BF9DF80030002BFBD162B618BD1C
:10D48000D02800202DE9F04104460D4616460448F8
:10D490000768324629462046B847BDE8F0810000BB
:10D4A00030270020F8B505460C462778A06800EB29
:10D4B0004000064951F820600548006800902A465F
:10D4C000394604F108002369B047F8BD98280020C8
:10D4D0002C21002010B504460748007800EB80029C
:10D4E0000548001D00EB82012046FFF7DBFF04200A
:10D4F00004F0D6FF10BD0000CC27002010B5034675
:10D500000C4600BF0B48006808B9082010BD00BFDA
:10D510000AB90720FAE70BB90720F7E71868007C7B
:10D5200008B10820F2E71968002008744C744A61B9
:10D5300000BFEBE74C2100202DE9F04180460E466C
:10D5400014461F46204600F0030109B9012100E0FE
:10D55000002111B90720BDE8F08124B900201D4940
:10D5600008600720F7E704F01DFE1B480760032052
:10D570001A49087017480460183400250DE0154951
:10D58000096801EBC500002101704170867044609C
:10D5900006EB460104EBC1046D1C032DEFDB0020FC
:10D5A0000F4908600F4908700F4908701420FFF7F1
:10D5B0000BF906211420FFF72BF91420FFF710F9BF
:10D5C000404604F0C5FD04F0BDFD08490860002098
:10D5D000C1E700004C2100206421002048210020E8
:10D5E00050210020602100206121002054210020D2
:10D5F0002DE9F84304460D461746264600BF11485C
:10D60000006810B90820BDE8F88300BF0CB90820F5
:10D61000F9E7052D01D20720F5E7706908B9082060
:10D62000F1E7707C012801D1284600E00020804607
:10D6300005F072FD814643462A463146009705F0C3
:10D6400097FAE0E74C21002070B50446254600BF5C
:10D650000948006808B9082070BD00BF0CB16869AE
:10D6600008B90820F8E70020287405F055FD0646A3
:10D67000294605F0ABFAEFE74C210020F8B5054646
:10D680000C4617462088001DB84201D90C20F8BD71
:10D69000684679DF064600BF0EB13046F7E700BFA7
:10D6A0000320218868542088401C2080192021886C
:10D6B00068542088401C208020884119BDF8000053
:10D6C00005F0CEFC2188084420800020DFE7704769
:10D6D0002DE9F04192B080460D461F201190109028
:10D6E000B8F1000F17D04046FFF75DFD044600BFBC
:10D6F0001CB1204612B0BDE8F08100BF11AA08A9F4
:10D700004046FFF76DFC044600BF0CB12046F1E730
:10D7100000BF08AE02E0002600201190ADB12846FF
:10D7200004F040FF044600BF0CB12046E2E700BF12
:10D7300010AA69462846FFF753FC044600BF0CB107
:10D740002046D7E700BF6F4602E000270020109078
:10D75000BDF84000C3B2BDF84400C1B23A463046FD
:10D7600072DFC7E72DE9F04704460F4615461E460F
:10D77000DDF8208000BF14B90E20BDE8F08700BF9F
:10D7800000BF0DB90E20F8E700BF00204649087021
:10D79000464806604648C0F800802422294645488D
:10D7A000FEF786FE00F03EF94348444908604448CD
:10D7B000886038214348FEF794FE2078414908707C
:10D7C000A0788870E078C870607848700846D4E91E
:10D7D0000412C0E90412D4E90212C0E90212D4E929
:10D7E0000612C0E90612606AD8B137483549486266
:10D7F00036498160606A00883249496A0880606AF7
:10D8000080883049496A8880002005E0616A89681B
:10D81000095C2E4A1154401C2A49496A8988814270
:10D82000F4D8A06A20B32A492A4881602549886231
:10D8300027492448806A8160A06A80882149896AD2
:10D840008880A06A00881F49896A0880002005E056
:10D85000A16A8968095C1E4A1154401C1949896AE9
:10D8600089888142F4D894F82C00164981F82C005C
:10D87000206A58B1184813490862206A4088096A2A
:10D880004880206A00880F49096A0880606820B1D2
:10D8900012480C4948606068486039460948FFF7FB
:10D8A00017FF8146484668E7D4200020CC2000209E
:10D8B000D0200020FC24002030250020202500203E
:10D8C00050250020C4240020702500207C25002045
:10D8D000A82500209C250020D8200020DC20002046
:10D8E00070B504462088102804D0112809D01B28C0
:10D8F00063D11BE0A07D012802D1A08830490880B7
:10D900005CE000202F490870A0882D4909888842D2
:10D910000BD1012000F0CAF8054635B12A4800684D
:10D9200018B1284628490968884747E0207A002826
:10D9300042D126480078012806D0022811D00328B9
:10D940001CD0042836D129E0022000F0AFF80546AB
:10D9500035B11D48006818B128461B490968884739
:10D9600029E0032000F0A2F8054635B1164800680A
:10D9700018B128461449096888471CE00320144957
:10D980000870042000F092F8054635B10E48006892
:10D9900018B128460C49096888470CE000200C495A
:10D9A00008700C48006820B10846007809490968E9
:10D9B000884700E000BF00BF00E000BF00BF70BDAF
:10D9C000DE200020D5200020D0200020D420002000
:10D9D000C8200020CC20002070B504460025022C71
:10D9E00002D0032C15D100E000BF0B48007878B1BD
:10D9F0000020094908700948007800F057F80546EA
:10DA000035B10748006818B12846054909688847B4
:10DA100000E000BF00BF70BDC0200020D420002067
:10DA2000D020002002480021016081808171704770
:10DA3000C120002010B518480078012829D11748C6
:10DA4000007830BB1648007830B174DF044600BF60
:10DA50000CB1204610BD00BF0120104908700620FF
:10DA60001049C87000210F48FFF732FE044600BF7E
:10DA70000CB12046EEE700BF0948007800F016F828
:10DA8000044634B10848006818B1204606490968C0
:10DA900088470020DEE70000FC240020D52000207D
:10DAA000D4200020C4240020D020002030B587B02E
:10DAB00005469548057002F02CFC28B101209349D9
:10DAC0000870002007B030BDFFF7ACFF90484078E9
:10DAD00018B18D48007801280DD08D48807818B194
:10DAE00089480078012806D08948807888B186481E
:10DAF000007802280DD18748006838B10120864996
:10DB00000870082083490968884702E0002082499C
:10DB100008707D480078012809D17D48407818B107
:10DB20007E4803F02DFF10B902207749087076482F
:10DB30000078022809D17648807818B1774803F038
:10DB40001FFF10B90320704908707148007B30B97D
:10DB50006D480078032802D104206B4908706C4896
:10DB6000007E40B968480078042804D10020664946
:10DB700008706B49087067480068A8B1624800786F
:10DB8000032803D06048007804280DD1604800784D
:10DB900050B16448007838B9012063490870072003
:10DBA0005C490968884702E000205F490870182135
:10DBB00001A8FEF796FC00208DF8040002908DF875
:10DBC0000C00049050480078012806D0022813D099
:10DBD000032825D0042876D150E05048401E0290FA
:10DBE00001208DF804000020ADF81600ADF81400F7
:10DBF00001204B49087071E04848401E0290012006
:10DC00008DF804004248008980B2ADF81600404803
:10DC1000808880B2ADF814000220414908705DE0B0
:10DC20003B48808A80B2ADF816003948008A80B23D
:10DC3000ADF814003D4805F04AFBD8B134480078EF
:10DC4000C0B138480078A8B902208DF80C003748D8
:10DC5000049004203649C87000213548FFF738FD8C
:10DC6000044600BF0CB120462CE700BF05202C491C
:10DC7000087002E003202A4908702FE02448808BB6
:10DC800080B2ADF814002248008C80B2ADF81600C6
:10DC9000264805F01CFBE0B11D480078C8B12148BA
:10DCA0000078B0B902208DF80C00204804900420C0
:10DCB0001F49C87000211E48FFF70AFD044600BF37
:10DCC00014B12046FEE608E000BF062014490870A3
:10DCD00002E004201249087000E000BF00BF0A48BB
:10DCE000007838B101A873DF044600BF0CB12046AC
:10DCF000E8E600BF0748006820B1094800780549F8
:10DD0000096888470020DDE6D4200020C0200020DC
:10DD1000FC240020CC200020D7200020C22000209E
:10DD2000C8200020D5200020D6200020202500205B
:10DD3000C424002070B505461C2229461248FEF76F
:10DD4000B7FB002011490870286850B110482968B5
:10DD50000A680260496841607ADF04463CB12046A7
:10DD600070BD0B487BDF04460CB12046F8E74FF648
:10DD7000FF7008490880002007490870074A002101
:10DD80000748FFF7BBFBEBE7C8250020F420002085
:10DD9000E0200020EA200020E82000208930020056
:10DDA0006033020010B504462088102806D01128E0
:10DDB00008D012280ED0502810D107E0204603F0DA
:10DDC0005DFB0CE0204603F075FB08E0204603F005
:10DDD00091FB04E0204603F045FB00E000BF00BFDC
:10DDE00010BD2DE9FC4105460C4617462088093038
:10DDF000B84202D90C20BDE8FC81684671DF0646B6
:10DE000000BF0EB13046F6E700BF082021886854F5
:10DE10002088401C20801B20218868542088401CBA
:10DE2000208020882844DDF801100160BDF805102D
:10DE300081802088801D20809DF8000018B9002076
:10DE40002188685402E00120218868542088401C01
:10DE500020800020CFE710B50446204601F058FB93
:10DE60002046FFF79FFF204600F0D2F8204603F03F
:10DE700067FA2046FFF734FD10BD000070B586B08C
:10DE800038480068059000BF00234822364905A89D
:10DE900004F04AFB054600BF2E463EB100BF33A248
:10DEA00040F2AF113046FFF798FA00BF00BF00BF45
:10DEB0006A460121002004F017FB044600BF2546F6
:10DEC0003DB100BF29A240F2B5112846FFF785FAFF
:10DED00000BF00BF00BF294E304604F0C9F9044618
:10DEE00000BF25463DB100BF20A24FF4DC7128469B
:10DEF000FFF773FA00BF00BF00BF01208DF80C00D0
:10DF0000684604F0E3FA044600BF25463DB100BF71
:10DF100016A240F2BD112846FFF75FFA00BF00BF0E
:10DF2000174804F0C7FA044600BF25463DB100BFBC
:10DF30000EA240F2C1112846FFF74FFA00BF00BF02
:10DF4000104804F023FB044600BF25463DB100BF46
:10DF500006A240F2C5112846FFF73FFA00BF00BFF6
:10DF600006B070BDE0320200102400202E2E5C2E80
:10DF70002E5C2E2E5C6D61696E2E6300E81F002002
:10DF800057DE01003D2902007CB50446A1786A46AF
:10DF90000D4803F091FD0546ADB96178C1EBC101B3
:10DFA0000A4A02EB81001C231A46694603F0C2FEAE
:10DFB00005460748807A074951F8202021466846DF
:10DFC0009047054600BF7CBDF8200020E4260020D5
:10DFD000302700207433020070B505460C46002639
:10DFE0000948056044B1204604F0E3FA064600BF44
:10DFF0000EB1304670BD00BF0448006810B9FFF78D
:10E00000DBF806463046F5E7B8200020BC200020AB
:10E0100070B505462888102802D011282CD115E0AB
:10E020001748006860B900F0EBFF044600BF34B148
:10E030001448006818B1204612490968884700BF93
:10E040000F480068401C0E49086016E00C48006844
:10E05000401E0B4908600846006860B9FFF7ACF83D
:10E06000044600BF34B10748006818B1204605498E
:10E070000968884700BF00E000BF00BF70BD000016
:10E08000BC200020B820002010B5032000F046FC82
:10E09000044600BF1CB1062C01D0204610BD00BFB5
:10E0A0000020FBE72DE9F04105460F464FF0000840
:10E0B000002400E0641C042C04D22A4850F82400F8
:10E0C000A842F7D1042C41D227B3012F02D0022F4E
:10E0D0003BD133E004EB4400234911F8008004EB0A
:10E0E00044000844407868B12048006800EB800094
:10E0F00041001F4A1F480068FFF77AFA06460EB92A
:10E100001B48057004EB44001749084480781A49FD
:10E1100008551AE017480068FFF796FA1648005DA0
:10E1200004EB4401104A11448978884205D104EB7C
:10E1300044001146084490F8028006E004EB4400D5
:10E140000949084490F8018000BF00BFB8F1000FF2
:10E1500006D00A48006818B140460849096888474F
:10E16000BDE8F0813033020098240020A020002078
:10E17000B02000202C330200B1200020AC20002071
:10E1800010B50246042A0ED2094B1B68D843094B2E
:10E1900013F822400123A34003400BB1012300E008
:10E1A00000230B7001E000200870002010BD00006B
:10E1B000100500503033020070B50546042D06D01E
:10E1C000072D18D00A2D28D104F036F926E01321A6
:10E1D0001348008876DF0446082C0BD000BF264683
:10E1E0003EB100BF0FA24FF4ED713046FFF7F5F8D6
:10E1F00000BF00BF12E0FFF71DFC0446082C0BD047
:10E2000000BF26463EB100BF06A24FF4F171304672
:10E21000FFF7E3F800BF00BF00E000BF00BF70BD24
:10E22000822000202E2E5C2E2E5C2E2E5C6D6169CD
:10E230006E2E630030B503460020042B23D2012A42
:10E2400007D1012903D103F10D04E4B200E0002459
:10E25000224679B1012902D0022911D104E003EB51
:10E2600043040A4D2A550DE003EB4304074D2C44AB
:10E27000627007E003EB4304044D2C44A27001E0FC
:10E28000072000BF00E0072030BD000098240020D8
:10E2900070B5044600250548007800F0010018B16B
:10E2A000204600F06DF80546284670BDA4200020E9
:10E2B0002DE9F04105460E469046002425480660AB
:10E2C000254805602548C0F8008005F00200F8B137
:10E2D000002706E0012211463846FFF7ABFF04464F
:10E2E0007F1C042F01D2002CF4D02CB97208042119
:10E2F0001B48FFF711F8044614B9FEF7F7FF044670
:10E300002CB9184A00211848FFF7F8F8044600BF56
:10E3100005F0010068B100BF4FF4F0101349086028
:10E320000020091D086000BF4FF4F0100F491031A4
:10E3300008602CB90E4A00210E48FFF7DFF80446AA
:10E340002CB90D4A01210D48FFF7D8F804462046A4
:10E35000BDE8F081A0200020A4200020AC200020F7
:10E36000403302006DE901002C3302000805005023
:10E37000390A020024330200C9D201002833020006
:10E380002DE9F041044600260025182C7DD2DFE857
:10E3900004F00C1D1E68B4EEEDECEBEAE9E8E7E6EC
:10E3A000E5E4E3E2E1E0DFDEDDDC00BFFD4801683B
:10E3B0004FF4F010884300F4F010FB49086000208F
:10E3C000091D086000BFF948047098E200BF00BF53
:10E3D000F44801684FF4E010884300F4F010F2496B
:10E3E00008600020091D086000BFEF48001F00689A
:10E3F00080F4F01000F4003088B100BF4FF400301A
:10E40000091F08600020091D086000BF022C02D10E
:10E410004FF4E16001E04FF47A60054610E000BF80
:10E420004FF40030E049091D08600020091F086012
:10E4300000BF022C01D1C82001E04FF4C87005468E
:10E44000DA4804706420B5FBF0F0D949096800FB94
:10E4500001F700223946D7480068FFF7C9F8064699
:10E460004DE200BFCF4801684FF4E010884300F44C
:10E47000F010CD4908600020091D086000BFCA489F
:10E48000001F006880F4F01000E037E200F4003074
:10E4900088B100BF4FF40030091F08600020091D3B
:10E4A000086000BF032C02D14FF4487001E04FF424
:10E4B0007A60054610E000BF4FF40030BA49091DEC
:10E4C00008600020091F086000BF032C01D1C8208C
:10E4D00001E04FF4C8700546B44804706420B5FBF1
:10E4E000F0F0B349096800FB01F700223946B14852
:10E4F0000068FFF77DF8064601E200BFA948016801
:10E500004FF4E010884300F4F010A74908600020A1
:10E51000091D086000BFA448001F006880F4F010C7
:10E5200000F4003020B300BF4FF40030091F086032
:10E530000020091D086000BF042C02D14FF47A604E
:10E5400001E04FF47A60054624E0CBE1C9E1B3E194
:10E550009DE187E179E13FE13DE13BE139E137E1EF
:10E560002AE105E1EDE0D3E0BBE0A1E06CE022E0D0
:10E5700000BF4FF400308C49091D08600020091FBE
:10E58000086000BF042C02D14FF4C87001E04FF4C2
:10E59000C8700546854804706420B5FBF0F08449D6
:10E5A000096800FB01F70022394682480068FFF73E
:10E5B0001FF80646A3E100BF7A4801684FF4E01057
:10E5C000884300F4F010784908600020091D0860B5
:10E5D00000BF7548001F006880F4F01000F40030A0
:10E5E00080B100BF4FF40030091F08600020091DF2
:10E5F000086000BF052C01D1C82001E04FF47A600B
:10E60000054610E000BF4FF400306749091D08605F
:10E610000020091F086000BF052C01D1C82001E0BF
:10E620004FF4C8700546614804706420B5FBF0F0F3
:10E630005F49096800FB01F7002239465D48006820
:10E64000FEF7D6FF06465AE100BF564801684FF470
:10E65000E010884300F4F010534908600020091DC1
:10E66000086000BF5048001F006880F4F01000F4FC
:10E67000003040B100BF4FF40030091F0860002097
:10E68000091D086009E000BF4FF400304649091D2C
:10E6900008600020091F086000BF44480470444817
:10E6A0000022016843480068FEF7A2FF064626E103
:10E6B00000BF3C4801684FF4E010884300F4F010BC
:10E6C000394908600020091D086000BF00BF4FF4F1
:10E6D000003008600020091F086000BF3348047044
:10E6E0000DE100BF3049091F08684FF480218143C4
:10E6F0002D4A116000F48021121D116000BF2C48CA
:10E70000002201682B480068FEF772FF0646F6E01B
:10E7100000BF2549091F08684FF480218143224A20
:10E72000116000F48021121D116000BF20480068B4
:10E7300000EB800100221F480068FEF759FF0646E3
:10E74000DDE000BF1849091F08684FF480218143AC
:10E75000154A116000F48021121D116000BF144899
:10E760000022016813480068FEF742FF0646C6E033
:10E7700000BF0D49091F08684FF4802181430A4AF0
:10E78000116000F48021121D116000BF084800686C
:10E7900000EB8001002207480068FEF729FF0646CB
:10E7A000ADE00000A8200020080500509C200020BB
:10E7B000A02000202433020000BF4FF4F010524983
:10E7C00008600020091F086000BF5048047096E0F0
:10E7D00000BF00BF00BF00BF4D480068FEF734FF18
:10E7E0000646C4F111050DB306BB4FF4002049499C
:10E7F0000860012D0FD9C82068436421B0FBF1F0F7
:10E800004549096800FB01F7002239464048006885
:10E81000FEF7EEFE064600BF3E48006800F4F0102A
:10E82000394908600020091F08600DE000BF394821
:10E83000006800F4F0103449091F08600020091D29
:10E84000086000BF3349086059E000BF4FF4F01082
:10E850002D49091F08600020091D086000BF2B48D2
:10E8600004704CE000BF4FF4E0102749091F086016
:10E870000020091D086000BF00BF4FF40030086091
:10E880000020091F086000BF2048047037E000BF67
:10E890004FF4D0101C49091F08600020091D0860B2
:10E8A00000BF00BF4FF4802008600020091F0860EF
:10E8B00000BF1648047022E000BF4FF4C010124998
:10E8C000091F08600020091D086000BF00BF4FF449
:10E8D000C02008600020091F086000BF0B480470BA
:10E8E0000DE000BF00BF4FF4F010074908600020A2
:10E8F000091F086000BF0548047000E000BF00BFAA
:10E900003046BDE8F08100000C0500509C2000203E
:10E9100028330200A8200020A020002030B50246A5
:10E9200000201AE00F4C54F82040A40004F1A04449
:10E93000D4F800170124844014400CB1032400E0F3
:10E940000024234621F4403141EA0341064C054DA1
:10E9500055F8205044F82510401C0428E2D300202C
:10E9600030BD0000303302000007005010B50446EF
:10E9700020780221FFF796FB10BD0000F8B5054690
:10E98000164A40F6CD410320FFF792FC044600BF33
:10E9900026463EB100BF12A240F265213046FEF786
:10E9A0001CFD00BF00BF69460020FFF715FB0446B1
:10E9B00000BF26463EB100BF09A24FF41A7130468F
:10E9C000FEF70BFD00BF00BF9DF80000022801D13B
:10E9D000012000E000202870F8BD0000B9E101002E
:10E9E0002E2E5C2E2E5C2E2E5C6D61696E2E6300C9
:10E9F0004FF0FF31054A42F82010082804DBFF23BE
:10EA0000A0F10801503253547047000054270020F1
:10EA10000146024850F821007047000054270020AA
:10EA20002DE9F04F03460C464FF0FF390AB10020A4
:10EA300000E0082084460AB1082000E00C2080464F
:10EA4000614624E0154850F82100401CF0B91D46ED
:10EA50000846274616464FFA80FBDFF840A00AF129
:10EA6000300A0AF805B0DFF834A04AF820704EB931
:10EA70004FFA85FBA0F1080ADFF820E00EF1500EF6
:10EA80000EF80AB000BF4FFA81F902E0491C414577
:10EA9000D8D300BF4846BDE8F08F000054270020BF
:10EAA0000146014840567047842700202DE9F84F61
:10EAB0003A48007800EB80013848001D00EB8104E3
:10EAC000E668A06800EB4000354901EB8000B0F833
:10EAD0000890A06800EB400001EB8000B0F80AA0AD
:10EAE000A06800EB400001EB80004068009003F05C
:10EAF000D4F8B6FBF0F100FB116008B9012000E08A
:10EB000000208046009809FB0A0760883044A188ED
:10EB10004518002023490860B8F1000F04D003F025
:10EB2000BCF86188884209D0B8F1000F03D0BD421B
:10EB300001D1A08810B1A068032809D103F0ADF875
:10EB4000B6FBF0F018490860032003F0A9FC22E0AE
:10EB500003F0A3F8A1883144B1FBF0F200FB1210DE
:10EB600080081249086003F098F8B5FBF0F100FB4B
:10EB7000115008B9012000E000208346BD4206D0B4
:10EB8000BBF1000F03D1B9B2A8B203F0EFFE02202F
:10EB900003F086FC00BFBDE8F88F0000CC27002002
:10EBA000982800201C21002020210020182100206E
:10EBB00010B50848007800EB80010648001D00EB06
:10EBC00081042078042802D000F0BAF801E003F0B4
:10EBD00045FE10BDCC27002010B50F48007800EB93
:10EBE00080010D48001D00EB810460880B4908601E
:10EBF0002078012804D0032805D0042809D105E095
:10EC000003F02CFE06E0FFF751FF03E004F02EFABC
:10EC100000E000BF00BF10BDCC2700202C21002049
:10EC200010B50348407808B1FFF7D6FF10BD0000CB
:10EC3000CC270020002200EB8003114901F823209B
:10EC400000EB800301EB83014A80022200EB80038A
:10EC50000B4901EB83018A60002200EB8003084925
:10EC600001EB8301CA6000EB8003054901EB8301DE
:10EC70000A6100EB8003024901EB83018A8070473F
:10EC8000D02700202DE9F04706460F4690469946CA
:10EC9000DDF820A0204840780A2839D01E480078A6
:10ECA0001D49497844180A2C00D30A3C04EB84011E
:10ECB0001948001D00F8216004EB840100EB81007D
:10ECC000C0F8108004EB84011348001D00EB8100A4
:10ECD000D7E90012C0E9021204EB84010E48001DBE
:10ECE00000EB8100A0F8029004EB84010A48001DAB
:10ECF00000EB8100A0F804A007484078401C0649BA
:10ED000048700648007808B9FFF766FF002500E064
:10ED100004252846BDE8F087CC27002014210020D8
:10ED200010B50020054908704870002403E0204613
:10ED3000FFF780FF641C0A2CF9D310BDCC270020FC
:10ED400010B50848007800EB80020648001D00EB73
:10ED500082010020FEF7A6FB00F006F8002003F079
:10ED60009FFB10BDCC27002010B509490878FFF79C
:10ED700061FF07484078401E054948700846007802
:10ED8000401CC0B208700A2801D10020087010BDD4
:10ED9000CC2700202DE9F04782461F480068002854
:10EDA00036D01D480068056803F0CCF907461B48BB
:10EDB00004682146384603F0FFFDC61C1848007859
:10EDC00008B903F0D1F9AE4201D2284600E030463E
:10EDD000044424F07F44204603F0AEF903F0B2F976
:10EDE00080463946404603F0E7FD00F10309394605
:10EDF000204603F0E1FD814509D903F0A3F98146DE
:10EE000003F09AF92F20FDF705FB03F04BFF01E01B
:10EE100003F0C8F9BDE8F0875021002054210020FC
:10EE20006821002001460888062808DB0888B0F51C
:10EE3000486F06DD08884FF6FF72904201D0072028
:10EE400070474888062808DB4888B0F5486F06DD1B
:10EE500048884FF6FF72904201D00720F0E70888FB
:10EE60004FF6FF72904208D04888904205D008883B
:10EE70004A88904201DD0720E2E70020E0E72DE923
:10EE8000F04106460D46144698462088801D4045B0
:10EE900002D90C20BDE8F0813046FFF7C3FF0746DA
:10EEA00000BF0FB13846F5E700BF05202188685440
:10EEB0002088401C20801220218868542088401C13
:10EEC000208022885119308804F0CAF8218808442B
:10EED000208022885119708804F0C2F821880844E3
:10EEE00020800020D6E7000010B5044600BF03A232
:10EEF000AB212046FEF771FA00BF10BD2E2E5C2E0E
:10EF00002E5C2E2E5C6D61696E2E630030B587B06D
:10EF10001C216846FDF7E5FA002000904FF42030F0
:10EF200001904FF47020029003208DF80C00002017
:10EF3000ADF80E008DF810000A4805900A480690BA
:10EF40006846FEF7F7FE044600BF254635B100BF10
:10EF500006A2C2212846FEF740FA00BF00BF07B054
:10EF600030BD000025140200E9EE01002E2E5C2EBB
:10EF70002E5C2E2E5C6D61696E2E630038B51B48C9
:10EF800001F0B6FC20BB1A48007848B11948406926
:10EF9000E8B100200090174841696846884716E0AC
:10EFA0001548007810B91348456801E01148856894
:10EFB0000022294611480068FEF71AFB044634B1C6
:10EFC0000C48806918B10B4881692046884709E0E0
:10EFD0000848406930B10120009006484169684600
:10EFE000884700BF00200249087038BDEC2000208F
:10EFF000F4200020C8250020E82000206033020013
:10F0000010B5012200210846FFF714F9044600BF9D
:10F010001CB1072C01D0204610BD00BF07220221E1
:10F020000120FFF707F9044600BF1CB1072C01D0EF
:10F030002046F1E700BF042202210020FFF7FAF882
:10F04000044600BF1CB1072C01D02046E4E700BFF6
:10F050000020E1E770B503460C460820002117E0C8
:10F0600001EB41050C4E06EB8505AD7A254075B1E7
:10F070004FF6FF75AB4206D001EB410506EB850567
:10F080002D899D4202D11160002003E00520491C1A
:10F090000029E5D000BF70BD24270020012100EB2E
:10F0A00040020D4B03EB820291724FF6FF7100EBB1
:10F0B000400203EB82021181FF2100EB400203EBCF
:10F0C0008202D17200EB40011A4602EB810100225C
:10F0D0000A608A808A7170472427002010B51A4878
:10F0E000007800F0080058BB18480068401C174919
:10F0F00008601748006818B1042003F015FC21E0EF
:10F1000001F008FC18B1022003F00EFC1AE01148CF
:10F11000006890B10C48007800F0010048B90A4836
:10F12000006840F0010008490860002003F0FCFB83
:10F1300008E0032003F0F8FB04E003F0C9FB01E062
:10F1400003F0D6FB10BD000030210020202100205C
:10F15000182100201C21002010B50B48007800F079
:10F16000080070B90848007800F0020028B106488D
:10F17000006840F0010004490860022003F0D4FB5D
:10F1800001E003F0B5FB10BD302100202DE9F04770
:10F190008146002532E01C48006800EBC504217858
:10F1A000012000FA01F619480068304020B31748E2
:10F1B0000068B04315490860207801F0DDFF07467C
:10F1C000217801208840124909680840217807FA0F
:10F1D00001F188420FD16078012800D100E00020C1
:10F1E000784080F00108606820B108F0FF012078C5
:10F1F0006268904700BF00BF681CC5B20548007830
:10F200008542C8DBBDE8F08734210020442100207E
:10F2100040210020382100202DE9FC4104460D4604
:10F22000A1786A462B4802F047FC0746002F4ED1D2
:10F23000607800EB4000284901EB8000807A00F004
:10F240004000402801D0022D01D1244E04E0012DC0
:10F2500001D1234E00E0234EA078C0EBC000224A2B
:10F2600002EB800100231C226846B0470746EFB935
:10F27000022D1BD0607800EB4000174901EB8000A5
:10F28000807A20F04000617801EB4101124A02EBE4
:10F29000810188726078C0EBC000144A02EB8001E3
:10F2A0001C231A466846B047074600BF022D0ED001
:10F2B000207800EB40000E4901EB8000807A0D4978
:10F2C00051F82020214668469047074600BFBDE818
:10F2D000FC810000F8200020242700205D2002008F
:10F2E000391F0200ED27020020260020E42600201E
:10F2F000302700206433020070B503460A4648F206
:10F300004300002135E0C1EBC1041C4D05EB840432
:10F31000A47EFF2C2CD11478022C18D0C1EBC10490
:10F3200005EB8404A47E24F00204C1EBC105134E56
:10F3300006EB8505AC76C1EBC104354605EB8404CC
:10F34000156825619588A5829579A5750DE0C1EBB5
:10F35000C1040A4D05EB8404A47E24F00104C1EB32
:10F36000C105064E06EB8505AC761970002002E05B
:10F37000491C0729C7D300BF70BD0000202600200C
:10F380002DE9F04105460E4617464FF005080024CA
:10F390001AE03DB9C4EBC4000E4901EB8000008BBC
:10F3A000B8420CD07DB1C4EBC4010A4A02EB810122
:10F3B00001F1100007222946FDF79EF818B93460C4
:10F3C0004FF0000802E0641C072CE2D300BF404667
:10F3D000BDE8F081202600207CB50546A9B26A462A
:10F3E000074802F069FB044644B97421684602F0FC
:10F3F000B5FB044614B9284602F0CEFA20467CBD7F
:10F40000F82000202DE9F04106460F46144600BFC3
:10F4100025463DB100BF05A24FF4FA712846FDF71D
:10F42000DCFF00BF00BF0020BDE8F0812E2E5C2E67
:10F430002E5C2E2E5C6D61696E2E63007FB50546D5
:10F44000039502F02FFC044600BF26463EB100BFE4
:10F4500029A240F20E213046FDF7BFFF00BF00BFDA
:10F4600003A800F0BDFB044600BF26463EB100BF26
:10F4700021A240F211213046FDF7AFFF00BF00BFCF
:10F480000020CDF805008DF809009DF8050020F05A
:10F490000100401C8DF805009DF8050020F00200D9
:10F4A0008DF805009DF8050020F0700030308DF8D3
:10F4B00005009DF8050020F080008DF8050007216B
:10F4C0008DF8061010218DF807100F4800900120CC
:10F4D0008DF8040069460D4800F034FD044600BF75
:10F4E00026463EB100BF04A240F21F213046FDF780
:10F4F00074FF00BF00BF7FBD2E2E5C2E2E5C2E2E13
:10F500005C6D61696E2E630005F4010080200020AF
:10F510002DE9F0478EB00446FF200C904FF0000913
:10F520004FF0000A00BFFE48007810B90EB0BDE8E9
:10F53000F08700BF00BFFB48006800B9F6E700BFD6
:10F540000BA800F041FB054600BF2E463EB100BFB0
:10F55000F54A40F6F1113046FDF73FFF00BF00BF0E
:10F5600000270025201D09902C20ADF82800FF2041
:10F570008DF82E0000208DF82C000D90208810288A
:10F5800013D0A0880DAA0221FFF764FD054665B9D6
:10F590000D9800EB4000E54901EB8000C07A8DF842
:10F5A0002E000D98C0B28DF82D00208819287DD02E
:10F5B00008DC10280DD0112879D0132878D0142811
:10F5C00077D1C7E01A2875D01E2874D05228F7D1F9
:10F5D000C0E20DAE324601214FF6FF70FFF73AFD53
:10F5E0008046B8F1000F08D10220316801EB4101DB
:10F5F000CE4A02EB8101887201E04FF0040800BF9F
:10F600004546002D62D14FF0010911208DF82000F0
:10F610000D98C0B28DF82D00A0880D9901EB410125
:10F62000C24A02EB8101088102200D9901EB4101E0
:10F6300002EB810188720D9800EB4000114601EB4E
:10F640008001A2680A60A2898A80A07B8871E07D1F
:10F6500000F0010060B1E07DB54901EB5000007899
:10F66000FF280DD0E07D01EB500000780C9007E002
:10F670004FF6FF720CA904F10800FFF781FE054662
:10F6800025BBDDE90C0101EB4101A84A02EB810138
:10F69000C8720D9800EB4000114601EB8000807AA3
:10F6A00040F008000D9901EB410105E01AE10EE080
:10F6B00099E05EE2E3E156E202EB810188720C9888
:10F6C000C0B28DF82E000BA8FEF75EFC52E20D983A
:10F6D00000EB4000954901EB8000807A20F00200A9
:10F6E0000D9901EB4101914A02EB810188720D985D
:10F6F00000EB4000114601EB8000807A00F008002A
:10F7000008280ED10D9800EB400001EB8000807AB4
:10F7100000F0800080280FD100210BA8FFF77CFDAE
:10F720000AE09DF82E00FF2806D09DF82E0002F07A
:10F7300033F9FF208DF82E0010200D9901EB4101C7
:10F740007A4A02EB810188724FF0010912208DF88C
:10F7500020000FE20D9800EB4000744901EB80009F
:10F76000C07AFF2824D1228A0CA90020FFF708FEC6
:10F770000546EDB9DDE90C0101EB41016B4A02EBF5
:10F780008101C8720D9800EB4000114601EB80002A
:10F79000807A40F008000D9901EB410102EB8101F4
:10F7A00088720C98C0B28DF82E000BA8FEF7ECFB07
:10F7B0000D9800EB40005D4901EB8000C07AFF2806
:10F7C00005D00D98C0EBC0005A4901EB800A0D9995
:10F7D000C1EBC101584B03EB8102A08800235146C5
:10F7E00086DF0546C6E113208DF820000D9800EB5A
:10F7F00040004E4901EB8000807A40F004000D99F2
:10F8000001EB4101494A02EB810188724FF0010985
:10F810000D9800EB4000114601EB8000C07AFF28F4
:10F8200042D10D9800EB400002EB80010CA8FFF7DD
:10F8300063FD054665B90C98C0B28DF82E00DDE970
:10F840000C0101EB4101394A02EB8101C87202E06F
:10F850002F464FF00109002004900D9800EB400066
:10F86000324901EB8000C07AC0EBC000324901EBA5
:10F87000800105910021069107910D98C0EBC00011
:10F880002C4901EB80000090002001900290039031
:10F89000A0886B46234A121D00217FDF054615B163
:10F8A0002F464FF000091CE00D9800EB40001F4967
:10F8B00001EB8000807A40F040000D9901EB41019E
:10F8C0001A4A02EB8101887216208DF82000A08868
:10F8D00000231A4685217FDF054615B12F464FF0DC
:10F8E000000947E10F48407A20F001000D494872B5
:10F8F0000D9800EB40000D4901EB8000807A20F06C
:10F9000004000D9901EB4101084A02EB8101887264
:10F9100014208DF820004FF00109207A20B30DE06B
:10F920000421002030270020C833020024270020B3
:10F9300005210020E4260020202600200D9800EB61
:10F940004000114601EB8000807A00F04000402822
:10F9500009D00D9901EB410102EB8101C87AFFF753
:10F960003BFD0646277A89E0607AC0F38000E0B369
:10F970009DF82E00FF2838D00D9800EB40008C49F0
:10F9800001EB8000807A40F008000D9901EB410105
:10F99000874A02EB81018872607BC0F3400088B126
:10F9A0009DF82E00C0EBC000824901EB8000807EF4
:10F9B00020F001009DF82E10C1EBC1017D4A02EB41
:10F9C000810188760D9800EB4000794901EB8000B9
:10F9D000C07AFF2852D00D9800EB400011F82000AB
:10F9E000022827D09DF82E0000E047E0C0EBC000C1
:10F9F000704901EB80000D9901EB41016C4A02EB6B
:10FA000081010A6802618A888282897981759DF8FC
:10FA10002E00C0EBC000674901EB8000807E20F023
:10FA200002009DF82E10C1EBC101624A02EB810178
:10FA300088761FE00D98C0EBC0005F4901EB8000A5
:10FA4000408A9DF82E10C1EBC1015A4A02EB810198
:10FA500008839DF82E00C0EBC000114601EB80002A
:10FA6000807E20F001009DF82E10C1EBC10102EB59
:10FA70008101887601210BA8FFF7CEFB7AE0207A7E
:10FA80000121B1EB101F43D1207A00F00F000128B3
:10FA90003ED10D9800EB4000454901EB8000807A93
:10FAA00000F00800082833D10D9901EBC101434A49
:10FAB00002EB810101F108001A21FCF712FD16206A
:10FAC0008DF820000D9800EB4000394901EB8000D3
:10FAD000807A40F020000D9901EB4101344A02EB9D
:10FAE000810188720D9800EB4000114601EB800007
:10FAF000807A40F040000D9901EB410102EB810159
:10FB000088722F48407A40F002002D4948721DE06B
:10FB10000D9800EB4000264901EB8000807A40F010
:10FB200080000D9901EB4101214A02EB81018872AD
:10FB300015208DF820002248807A224A52F82010A1
:10FB40000BA8884705460DB148F2410700274FF042
:10FB500001090FE01A48807A1A4A52F820100BA8BF
:10FB60008847074606E013208DF820004FF0010972
:10FB700000E000BF00BFB9F1000F17D03A4608A956
:10FB80000BA8FDF77FFC9DF8200012280ED100BFC6
:10FB90000D9800EB4000064901EB8000807A0128B7
:10FBA00002D00D98FFF77AFA00BF00BF00BFBDE496
:10FBB0002427002020260020E42600200027002003
:10FBC0003027002084330200014611B948F20E00AC
:10FBD0007047FF20087048708870C8700020F7E7F1
:10FBE0007FB506461EB948F20E0004B070BD002471
:10FBF00012E02046002100EB4002344B43F8221073
:10FC000000EB400203EB8202517200EB400203EB77
:10FC10008202917200BF641C002CEAD0002403E031
:10FC20002046FFF73BFA641C002CF9D02421284819
:10FC3000FCF757FC002406E0204601F0ADFEFF2053
:10FC400024490855641C072CF6D37420ADF80C0029
:10FC50000720ADF80E0020480290204902A802F0CB
:10FC6000E3F8054625BB01201D490870307800BB2C
:10FC700000241BE0A1B26A46184801F01DFF0546AA
:10FC80007DB9C4EBC401174A02EB810000231C229A
:10FC9000694602F04FF805463DB100201049087052
:10FCA00006E000200E49087002E0641C072CE1D336
:10FCB00009E0BDF80C00BDF80E20504381B20748A2
:10FCC00001F04CFF054628468FE700003027002052
:10FCD0000027002005210020E9FC0100F820002079
:10FCE00004210020202600202DE9FF4F91B00F466F
:10FCF00092461D46DDF8789000BF8748006810B92D
:10FD000015B0BDE8F08F00BFB9F1740F00D9F7E767
:10FD10004FF0010B0DA8FFF757FF064600BFB04696
:10FD2000B8F1000F07D000BF7C4A40F2A151404615
:10FD3000FDF753FB00BF00BF00208DF834008DF8A5
:10FD400038000C95CDF82C90804614E01FFA88F10D
:10FD500008AA734801F0B0FE064656B9082208A961
:10FD60001198FCF7C9FB20B908F0FF008DF83600A8
:10FD700004E008F10108B8F1070FE7D300BF9DF8D0
:10FD80003600FF2878D0032F0AD1B9F1740F03D1C0
:10FD900020208DF838009BE040208DF8380097E057
:10FDA0006048281A1C21B0FBF1F4072C1BD20AA8CA
:10FDB0000F90BAF1000F0ED19DF83600012181405D
:10FDC000594A1268114009B1012100E0002111B91E
:10FDD0004FF0000B7CE09DF8360003F04BF920203B
:10FDE0008DF8380074E05148281A1C21B0FBF1F45A
:10FDF000F4B90AA80F9020208DF83800E0B28DF8F1
:10FE00003500002004904A490591C4EBC4004749DD
:10FE100001EB800000909DF83600C0EBC000414926
:10FE200001EB80000190CDF830D020200B904FE006
:10FE30004048281A2421B0FBF1F4F4B930208DF8A1
:10FE40003800E0B28DF8350001208DF8370004EB62
:10FE50004400394901EB8000807A00F0020002285A
:10FE600036D09DF8351001EBC101324A02EB81001A
:10FE70002421FCF736FB2BE04CE04FF0000B402038
:10FE80008DF838002D48854203D103274FF0010B30
:10FE90001EE09DF836002A4951F82000A84217D1EB
:10FEA0004FF0010B0AA80F9000200EE09DF83610CD
:10FEB00000EB4002204B03EB8202D27A914203D145
:10FEC000C1B28DF8351002E0401C0028EED000BF12
:10FED000BBF1010F1ED1032F06D19DF8380040F071
:10FEE00003008DF838000EE0022F06D19DF838008F
:10FEF00040F001008DF8380005E09DF8380040F032
:10FF000002008DF838000AA80F9052460EA90DA8DD
:10FF1000FDF7B8FA00BFF3E630270020C83302002F
:10FF2000F82000202026002000210020E4260020C8
:10FF30003C270020002700202427002094330200C3
:10FF40000426002010B5024600BF2848007810B9EA
:10FF500048F2080010BD00BF12B948F20E00F9E7E0
:10FF600011B948F20E00F5E7086810B948F20E0022
:10FF7000F0E71F48006898BB1D4C086820602046C9
:10FF8000D1F8054044604C7A04720879184CA0728C
:10FF90002046007A20F0010415480472007A20F00F
:10FFA0000200801C124C20722046007A20F00404CB
:10FFB0000F480472C07920F00100401C0C4CE07125
:10FFC0002046C07920F00200801CE0712046C079F4
:10FFD00020F004040648C47100201070002302E0E1
:10FFE000FFE748F204031846B4E7000004210020AC
:10FFF00030270020014614480078144A12789042B5
:020000040002F8
:100000001DD011480078401C0F4A1070104600782F
:10001000022801D1002010700D480B4A127850F8C8
:10002000220008600B4A086812681044094A1060F0
:100030001046006820F07F401060012070470020CB
:10004000086000BFFAE70000602100206121002065
:10005000582100205421002010B50C48007800F0F1
:10006000080078B90A480068401C0949086000F097
:1000700051FC10B9FEF79CFD06E00648007802F03E
:100080000FFA01E000F0F4FD10BD00003021002067
:10009000202100201421002013480078062820D1B8
:1000A0001148001D007800F00F00D0B90E4808304C
:1000B000007800F0F000302801D1012070470A4894
:1000C0000830007800F0F000402801D10120F5E769
:1000D00005480830007800F0F000502801D10120D8
:1000E000ECE70020EAE70000E00F00F00A480078A3
:1000F00006280ED10848001D007800F00F0040B916
:1001000005480830007800F0F000302801D10120C7
:1001100070470020FCE70000E00F00F01348007873
:10012000062820D11148001D007800F00F00D0B93A
:100130000E480830007800F0F000302801D101208E
:1001400070470A480830007800F0F000402801D1DC
:100150000120F5E705480830007800F0F00050284D
:1001600001D10120ECE70020EAE70000E00F00F0F9
:100170000A48007806280ED10848001D007800F0D3
:100180000F0040B905480830007800F0F000302832
:1001900001D1012070470020FCE70000E00F00F0D3
:1001A00013480078062820D11148001D007800F07F
:1001B0000F00D0B90E480830007800F0F000302869
:1001C00001D1012070470A480830007800F0F000A3
:1001D000402801D10120F5E705480830007800F0FB
:1001E000F000502801D10120ECE70020EAE70000F0
:1001F000E00F00F00A48007806280ED10848001DDC
:10020000007800F00F0040B905480830007800F091
:10021000F000302801D1012070470020FCE70000E9
:10022000E00F00F00A48007806280ED10848001DAB
:10023000007800F00F0040B905480830007800F061
:10024000F000302801D1012070470020FCE70000B9
:10025000E00F00F00A48007806280ED10848001D7B
:10026000007800F00F0040B905480830007800F031
:10027000F000502801D1012070470020FCE7000069
:10028000E00F00F0F0B5034600241FE0124E306886
:1002900006689E4203D90668F61A06601AE00668E8
:1002A0009B1B06683444002606600B4E35680A4FD7
:1002B000C6693E60C66846B10E1926F07F464660A4
:1002C000C66886601668C661156000BF024800688F
:1002D0000028DBD100BFF0BD5021002030B504461E
:1002E0001088C01C984201D90C2030BD022015880E
:1002F00048551088401C10800120158848551088EA
:10030000401C108015884C551088401C108000201F
:10031000EBE738B500200090684601F0B7FB0446D3
:10032000082C02D00CB1012038BD082C06D168463B
:1003300000F070F804460CB10020F5E7009808B111
:100340000120F1E70020EFE710B5044614B1112CAD
:1003500008D100E00AE00648006840F008000449BF
:10036000086003E02046FDF7B5F800BF00BF10BDF0
:100370003021002010B50D480068401C0B49086072
:10038000B0F57A7F0DD00A480078022804D00848DA
:10039000007802F085F807E00648007802F0C4FA19
:1003A00002E00D20FDF796F810BD0000242100208A
:1003B000142100201521002010B50A4800780128DA
:1003C00004D0022808D0032809D102E002F04CFA38
:1003D00006E0FFF741FE03E002F09AFA00E000BFFA
:1003E00000BF10BD1421002070B50446204628DF50
:1003F0000546FFF7A9FF70BD2DE9F04104460D4603
:10040000164632462946204629DF0746FFF79CFF5D
:10041000BDE8F081014609B9032070470248406DEC
:1004200008600020F9E70000F02800203EB500BF7A
:100430009DF8000020F00F00401C00909DF8000087
:1004400020F0F0001030009000BF042216A1684692
:100450007CDF044600BF254635B100BF14A27A21D7
:100460002846FCF7BAFF00BF00BF002001900290B1
:100470005020ADF80400A020ADF806000020ADF833
:1004800008004FF4C870ADF80A0001A87ADF0446EE
:1004900000BF254635B100BF05A284212846FCF7E0
:1004A0009CFF00BF00BF3EBD6E616D650000000097
:1004B0002E2E5C2E2E5C2E2E5C6D61696E2E6300DE
:1004C0000146002070470246002070470246002087
:1004D000704700002DE9F04104460027B846002689
:1004E000607800EBC000374901EB8000406848B3FA
:1004F000607800EB4000344901EB8000807A00F026
:10050000800080281ED1607800EB400001EB800065
:10051000807A00F04000402814D0607800EBC000E2
:10052000284901EB800000F10807607800EBC0006B
:1005300001EB800080881FFA80F8607800EBC00033
:1005400051F82060617801EB41011F4A02EB810103
:100550000889334642463946A9DF05460B2D0CD1A2
:100560000126617801EB4101174A02EB81010889FC
:10057000334642463946A9DF05460DB148F24105EA
:10058000012E1BD1617801EB41010F4A02EB810181
:1005900008894FF6FF720C21A7DF054675B143F2BB
:1005A0000200854208D0082D06D0801C854203D069
:1005B000112D01D0002501E048F241052846BDE893
:1005C000F0810000002700202427002070B5054698
:1005D0000C46617801EBC1010E4A02EB8100382321
:1005E0002422294601F0A6FB064686B9607800EB76
:1005F000C000084901EB80004068401C38B9002069
:10060000617801EBC101034A02EB81014860304689
:1006100070BD0000002700202DE9F04188B007469A
:100620000C4603261A200790617801EB4101324AFB
:1006300002EB81010889334607AA6946AADF804692
:10064000B8F1000F54D1617801EBC1012B4A02EBE4
:10065000810101F10800BDF81C206946FBF74CFF41
:10066000A0B9607800EB4000234901EB8000807A5C
:1006700000F0020002283BD0617801EBC1011F4A63
:1006800002EB81002421FBF72CFF31E0607800EBC6
:10069000C0001A4901EB8000406808B1184D00E025
:1006A000184D607800EBC000144941F82060BDF897
:1006B0001C00617801EBC101104A02EB8101486026
:1006C000617801EBC10102EB810101F10800BDF885
:1006D0001C206946FBF7ECFE607800EBC000074A7F
:1006E00002EB8001382324223846A847804600BF09
:1006F000002008B0BDE8F08124270020002700205A
:100700005D200200391F020070B505462846FFF73C
:10071000E1FE044614B900BF00200446204670BD27
:1007200070B505460E4631462846FFF74FFF044692
:1007300014B900BF00200446204670BD70B50546C0
:100740000E4631462846FFF767FF044614B900BF3E
:1007500000200446204670BD2DE9F04105460F46B5
:10076000012000FA05F418480068FCF76DFF064602
:100770000EB1BDE8F081154800682040E0B9284678
:1007800000F0FAFC28B112480068204310490860C4
:1007900004E00F480068A0430D4908600B4800685A
:1007A00020430A49086000220A4801680648006898
:1007B000FCF71EFF064604E004480068A043034916
:1007C000086000BFD5E70000C033020044210020CC
:1007D000402100203C21002010B51648007800F090
:1007E000080018BB00F0C2F860B100201249086090
:1007F0001048006840F001000E490860002002F037
:1008000093F815E000F086F830B100200A4908603E
:10081000022002F089F80BE00848006818B10320B4
:1008200002F082F804E002F053F801E002F060F810
:1008300010BD000030210020182100201C210020C4
:10084000F8B52548007800B9F8BD2448006808B913
:10085000012000E0002005462148006808B9012079
:1008600000E00020064600BF9DB9684652DF0446FE
:10087000052C01D101250BE034B100BF194A9321A9
:100880002046FCF7AAFD03E0144900980968884750
:1008900000BFCEB91448008800906946134800682C
:1008A00061DF0446052C01D101260CE034B100BF04
:1008B0000C4AB2212046FCF790FD04E00B4800688A
:1008C00007490968884700BF0DB106B100E0CBE7D2
:1008D00000BF00BFB8E70000702100208021002089
:1008E0007C21002014340200782100207421002093
:1008F00001464888064A1288904206DB4888044A26
:100900005288904201DC012070470020FCE7000083
:10091000E02000202DE9F0411148007800EB800133
:100920000F48001D00EB8105EF6801F0B6F96988FA
:100930003944AA881144491EB1FBF0F60948006801
:10094000B04206D307480068B04204D106480068A8
:1009500008B9012400E000242046BDE8F081000031
:10096000CC270020202100201C2100202DE9F0416F
:100970000F48007800EB80010D48001D00EB810559
:10098000EE6801F08AF969883144AA881144491E49
:10099000B1FBF0F70748006828B107480068B84283
:1009A00001D1012400E000242046BDE8F0810000D0
:1009B000CC2700201C21002020210020014601F02E
:1009C000030008B9012070470020FCE730B5044659
:1009D0001088C01C984201D90C2030BD0220158817
:1009E00048551088401C10801C20158848551088D8
:1009F000401C1080012C06D0022C08D0032C0AD0F9
:100A0000042C10D10BE00020158848550DE0012082
:100A10001588485509E002201588485505E003204F
:100A20001588485501E00720D7E700BF1088401C13
:100A300010800020D1E7000010B50446044800787B
:100A400000F0010018B103480078FDF799FC10BDD3
:100A5000A42000209C2000202DE9F0412148D0F85E
:100A60000080214806782FE02048006800EBC6048B
:100A7000257825E005EB4501606800EBC107681C9F
:100A8000C5B2A078A84200D100253878022802D04B
:100A9000032812D103E0786802F034F80EE007E092
:100AA00010490868002101740E4AC169116000BF35
:100AB0000C4800680028F3D100E000BF00BF00BF71
:100AC0006078A842D6D100BF301EA6F10101CEB297
:100AD000CAD104480068404502D00120BDE8F08139
:100AE0000020FBE750210020482100204C2100205D
:100AF0002DE9F04706463B48D0F800903A48077881
:100B000061E03A48006800EBC70555E016B134468D
:100B1000E66923E02A7802EB4202696801EBC20031
:100B20002978491C29702978AA78914201D100219D
:100B3000297044680178012901D1217C01B13BE091
:100B400081686160C168A1600169E1604169A1617A
:100B50002749097809B10021616000BF2549606813
:100B60000968401A20F07F402349884208D2214971
:100B70006068096801F020FFA1680844206010E067
:100B80001C486168006801F017FF8046A068404576
:100B900004D9A068A0EB0800206001E000202060DC
:100BA00000BF00206060A060012020740020E06190
:100BB000204601F073FF00BF002EA7D12878697886
:100BC0008842A3D100BF381EA7F10101CFB298D14E
:100BD00004480068484502D00120BDE8F0870020A5
:100BE000FBE7000050210020482100204C2100207C
:100BF0006921002054210020FFFF7F0008B502F08A
:100C000057F86846FDF7BAFEFDF738F99DF8000081
:100C1000FEF714FCFFF70AFC01F006FCFCF7F6FAFD
:100C2000FEF774F9FCF753FD0320FCF73FFF044681
:100C300000BF25463DB100BF07A240F28B212846E8
:100C4000FCF7CBFB00BF00BF07A10020FBF7C6FEEF
:100C500000BF00F003FFFCE72E2E5C2E2E5C2E2E34
:100C60005C6D61696E2E63004D61696E000000006D
:100C700010B50548006820F00800034908600348E3
:100C8000007801F00DFC10BD30210020142100205F
:100C90002DE9F04105460E4614469846A888871C63
:100CA0002088801C3844404502D90C20BDE8F081E2
:100CB000FE2F01D90C20F9E7781C21887054208878
:100CC000401C2080FF20218870542088401C2080F8
:100CD00022889119288802F0C3F9218808442080CD
:100CE000A88800280DDDA86808B90720DEE7AA88D3
:100CF00023889819A968FBF7DBFB2088A98808449A
:100D000020800020D2E7000070B590B00446514822
:100D1000028851A10EA8FBF7CBFF0EA90020FBF71C
:100D20005DFE2089A0F58640E138102879D2DFE801
:100D300000F0082728298D2A2B2C2D8D8D8D8D8D47
:100D40008D8C46A10020FBF749FE228A04F1120196
:100D50000DA8FBF7ADFB00200C909DF837009DF827
:100D60003610CDE900109DF835309DF834203EA1B5
:100D70000CA8FBF79DFF0CA90020FBF72FFE66E0F7
:100D800065E064E063E062E061E060E000200A901A
:100D90000B90228A04F112010CA8FBF789FB0025B5
:100DA000012600BF09E00CA8405D0AA9495D884200
:100DB00001D0002603E0681CC5B2052DF3DB00BF9F
:100DC0003EB301202B4908702B4800884FF6FF7175
:100DD00088421ED00120049028A10020FBF7FEFDD0
:100DE0000020009001900290039023488088ADF885
:100DF000000001208DF802000020ADF8040004A8D6
:100E000002901C48007803901B4908886946A6DFB9
:100E100000BF1848007828B11CA109A8FBF748FFBB
:100E200004E013E01DA109A8FBF742FF09A9002077
:100E3000FBF7D4FD074802881CA105A8FBF738FF83
:100E400005A90020FBF7CAFD01E000E000BF00BFDC
:100E500010B070BD8220002025640A000A736574FA
:100E600020757569640A00002564202564202564C6
:100E700020256400842000203C22002066696E73D7
:100E80006E67736C6B6E666B616A00000A61636308
:100E9000657373206772616E746564000A616363D1
:100EA0006573732064656E6965640000506F20256A
:100EB000640A00002DE9F84F05460F46144698468F
:100EC0002878012804D1687810B90720BDE8F88F88
:100ED0002088801C404508D82878012807D1208820
:100EE000801C69780844404501D90C20EEE7208831
:100EF000A8EB0000801E86B200962188891CC819C4
:100F000069467DDF814600BFB9F1000F01D0484638
:100F1000DCE700BF2878022806D1BDF80000B04207
:100F200002DC4FF0090A0BE04FF0080A287801288C
:100F300005D16878B04202DC6878009000E0009645
:100F4000BDF80000FE2801D90C20BFE7BDF8000065
:100F5000401C218878542088401C2080208807F875
:100F600000A02088401C20802088BDF80010084484
:100F700020800020AAE7014600207047024600209A
:100F8000704702460020704770B50B4601461A466E
:100F9000002907DA5407260E104C01F00F052D1F0B
:100FA000665503E05407250E0D4C655400BF00BF85
:100FB00000F01F02012191400A4A440942F824101E
:100FC00000BF00BF00F01F020121914042099200C2
:100FD00002F1E022C2F8001100BF70BD18ED00E080
:100FE00000E400E080E200E02DE9F04705460E460F
:100FF000284600F011FDF8B12846FDF751FD0838EC
:1010000024490F5CBC11032C0BD100BF224800689F
:101010000121A940084008B1032000E002208046D9
:1010200005E0012C01D1022000E00320804641466A
:10103000284600F0F5F82AE0284600F0F9FC30B325
:101040002846FDF72DFD0446A00000F5807087B20C
:101050002046124951F8201041F001020F4941F891
:10106000202000BF384600F0F3F87EB12846FDF797
:1010700017FD8146FDF7CCFC8046B8F1000F04D087
:10108000012101FA04F000F0FDF800BF00BFBDE847
:10109000F0870000A42700201005005010650040D4
:1010A0002DE9FC4704460E4617464FF0000820463F
:1010B00000F0A4FC10B14FF0080851E0F278394676
:1010C0002046FDF7ADFC0546681C002845D0B078E9
:1010D00060B100BFA10001F1A041D1F8001721F0DB
:1010E0000200214941F8240000BF0CE096F801906D
:1010F000002000904B46024601460190204600F039
:101100007DF800BF00BFF078D0B13078174951F8B2
:101110002510174A1140154A42F82510114651F87A
:1011200025104FF4F85202EA04224FF4403303EA48
:1011300000431A4311430D4A42F8251000BF0EE048
:10114000A5F108000B49085C317840EA811042B2F1
:10115000A5F1080007490A5401E04FF0040800BF58
:101160004046BDE8FC8700000007005010650040C5
:10117000FFE0FCFFA4270020014600BF04480068F0
:10118000C84000F0010008B1012070470020FCE7D2
:101190001005005010B5134890F8540008B108200D
:1011A00010BD002404E0204600F052FC601CC4B2D4
:1011B000202CF8DB002404E02046FDF719FC601C1D
:1011C000C4B20C2CF8DB06210846FFF7DDFE4FF019
:1011D000004000F057F80120024981F85400002037
:1011E000DEE7000054270020034890F8540008B1BF
:1011F000012070470020FCE754270020F0B5DDE90E
:10120000054541EA420646EA830646EA042646EADE
:101210000547024E46F82070F0BD00000007005060
:10122000074A52F8202022F44033054A42F8203081
:1012300052F8202042EA0143014A42F82030704728
:101240000007005001460148084470470060004014
:1012500038B504462046FFF7F5FF0021016020461F
:10126000FFF7F0FF0068009000BF38BD10B50446DE
:101270002046FFF7E7FF0068012800D110BD0020DD
:10128000FCE700000149086070470000046300406B
:101290000146D1F88004C1F88004704702465058D6
:1012A00008B1012070470020FCE70022425070473F
:1012B000C0F8081370470246D2F80403084008B18A
:1012C000012070470020FCE7012242507047014690
:1012D000D1F88004C1F8800470470246505808B124
:1012E000012070470020FCE7002242507047014671
:1012F00040F23C504058704770B505468DB1032D03
:1013000012D10220FCF7C4FF044600BF264636B1C6
:1013100000BF07A2EF213046FCF75FF800BF00BF17
:1013200003E001F089F800E000BF00BF70BD0000DD
:101330002E2E5C2E2E5C2E2E5C6D61696E2E63004F
:10134000F8B504462088102804D011281AD0502857
:1013500034D122E00720FCF79BFF054600BF2E4654
:101360003EB100BF17A240F26D113046FCF735F8D0
:1013700000BF00BFA0881749088017A10020FBF715
:101380002DFB1CE04FF6FF70124908800020184921
:10139000087018A1FBF722FB11E019A10020FBF750
:1013A0001DFB22891EA16846FBF782FC69460020CE
:1013B000FBF714FB2046FFF7A7FC00E000BF00BFCF
:1013C000F8BD00002E2E5C2E2E5C2E2E5C6D616909
:1013D0006E2E6300822000200A506F6C61637A6574
:1013E0006E6965207573746177696F6E650A0000B8
:1013F000842000200A6C6F676F75740A000000007B
:101400000A506973616E696520646F206368617258
:10141000616B746572797374796B69200A000000DE
:1014200025580A0070B50546287878B93B21084848
:10143000008876DF044600BF264636B100BF05A20D
:10144000A0213046FBF7C9FF00BF00BF70BD000000
:10145000822000202E2E5C2E2E5C2E2E5C6D61696B
:101460006E2E630010B504460349A2680A60E06866
:101470004860FDF783FD10BDEC20002010B5044648
:10148000A088084908800849A2690A60E0694860A4
:101490000020064908700648C08908B9FDF76EFDAE
:1014A00010BD0000EA200020EC200020E8200020F1
:1014B000C825002070B505464FF6FF700949088021
:1014C00000200949087009480068FCF7BDF8044687
:1014D00034B10748806918B10548816920468847BA
:1014E00070BD0000EA200020E820002060330200E8
:1014F000C825002070B50546AC1D20881149C98952
:1015000088421DD1608902281AD100BF00BF217B0B
:10151000627B41EA0221084600F0010111B1FDF7AA
:101520002DFD0DE008480068FCF78EF8064636B140
:101530000448806918B1034881693046884700BF74
:1015400070BD0000C825002060330200F0B5ADF585
:10155000437D0646D948D0E90043D0E90221BF9433
:10156000C093C192C29124211AA8FAF7BAFF4FF48E
:10157000A8715FA8FAF7B5FFF02123A8FAF7B1FF29
:101580000020199000BF9DF8640020F00F00401C5F
:101590008DF864009DF8640020F0F00010308DF8A4
:1015A000640000BF00BF9DF8650020F00F00401CE4
:1015B0008DF865009DF8650020F0F00010308DF882
:1015C000650000BF0024D3E044F2E130B3A921F864
:1015D0002400B3A800EB8400811CBFA863DF05468C
:1015E00000BF2F4637B100BFB5A262213846FBF7D6
:1015F000F4FE00BF00BF04EB44001AA90844807841
:1016000020F00600801C04EB44011AAA11448870E3
:101610009DF8660020F00600801C8DF8660019A871
:10162000C4EBC4015FAA02EB81014861C4EBC400B2
:101630005FA911F8200020F010001030C4EBC401A5
:1016400002F82100092C06DA44F2E1302044B3A963
:1016500021F8240008E0092C06DB44F2E1302044A4
:10166000801DB3A921F82400B3A800EB8400811CDD
:10167000BFA863DF054600BF2F4637B100BF90A269
:101680006F213846FBF7A9FE00BF00BF032C2DD009
:10169000042C2BD00A2C29D00B2C27D0C4EBC4004F
:1016A0005FA911F8200020F008000830C4EBC40145
:1016B0005FAA02F8210000BF04EB44001AA9084405
:1016C000407820F00F00401C04EB44011AAA11449A
:1016D000487004EB44001AA90844407820F0F00058
:1016E000103004EB44011144487000BF012C2DD090
:1016F000022C2BD0052C29D0072C27D0082C25D044
:10170000092C23D0C4EBC4005FA911F8200020F0FD
:101710000200801CC4EBC4015FAA02F8210000BFD4
:1017200004EB44001AA9085C20F00F00401C04EBF5
:1017300044011AAA505404EB44001AA9085C20F092
:10174000F000103004EB4401505400BFB3A800EB8C
:10175000840004EB840123AA42F8210004EB440036
:101760001AA9084404EB840102EB81014860641C5F
:101770000C2CFFF629AF1020ADF89800ADF89400BE
:1017800055A0D0E90043D0E90212CDE91543CDE9D7
:10179000171215A82790022123A80184818352A043
:1017A0000168149114A923A841620221818601864F
:1017B0004EA00168139113A923A881630221ADF8FB
:1017C000D410ADF8D0104AA00168129112A923A834
:1017D000C1641E21ADF8E810ADF8E41020223749AD
:1017E00010310AA8FAF764FE0AA923A801660421A9
:1017F000ADF8FC10ADF8F8103EA00168099109A9F8
:1018000023A841671021ADF810110421ADF80C1187
:1018100039A00168089108A945910121ADF824116A
:10182000ADF8201132A00168079107A94A9105215E
:10183000ADF83811ADF8341100200590069005A9D7
:101840004F910521ADF84C11ADF84811039004906B
:1018500003A954910121ADF86011ADF85C1102901B
:1018600002A959910121ADF87411ADF8701123A0AE
:101870000168019101A95E91002419E004EB840341
:1018800023AF07EB8302C4EBC4035FAF07EB830115
:101890007088331DA2DF054600BF2F4637B100BF59
:1018A00007A2C1213846FBF798FD00BF00BF641CAA
:1018B0000C2CE3DB00200DF5437DF0BDE43202008B
:1018C0002E2E5C2E2E5C2E2E5C6F75725F736572F1
:1018D000766963652E630000E2C56DB5DFFB48D213
:1018E000B060D0F5A71096E0F00D0000BEEF00004C
:1018F000B300000006400C8012C315000200000077
:1019000070B586B00546174B0FCB01AC0FC444F23F
:10191000E030ADF81400A11C01A863DF044600BF4D
:10192000264636B100BF10A2D6213046FBF755FD42
:1019300000BF00BF4FF6FF702880AA1C05A9012038
:10194000A0DF044600BF264636B100BF06A2DE2156
:101950003046FBF742FD00BF00BF2846FFF7F6FD0B
:1019600006B070BD143302002E2E5C2E2E5C2E2E7F
:101970005C6F75725F736572766963652E630000D4
:101980000246002104E0505C08B101207047491C68
:101990000629F8D30020F9E710B50446C4EBC400CB
:1019A000144901EB80000021401C01618182C4EBDD
:1019B000C401104A02EB81001021FAF792FDFF20CA
:1019C000C4EBC4010B4A02EB81010874C4EBC401EF
:1019D00002EB810188764FF6FF70C4EBC40102EB85
:1019E00081010883204601F045FB0020024941F8AF
:1019F000240010BD202600200426002001460548B2
:101A00004056012202EBE07008B10120704700202F
:101A1000FCE70000842700200146044840560828BF
:101A200001DB012070470020FCE700008427002034
:101A3000014606484056002805DB04484056082861
:101A400001DA012070470020FCE700008427002015
:101A5000FF2201490A5470478427002070B548DFEF
:101A6000044600BF25463DB100BF04A240F27321E9
:101A70002846FBF7B2FC00BF00BF70BD2E2E5C2EC7
:101A80002E5C2E2E5C6D61696E2E6300014600BFD8
:101A90000748007800F0040008B90820704700BF2C
:101AA00009B90E20FAE70348407808600020F5E7FE
:101AB00030210020CC2700207CB5034600BF2548FC
:101AC000007800F0040008B908207CBD00BF0BB905
:101AD0000E20FAE70AB90E20F7E71868022806D2A6
:101AE000186800EB40001C4C54F8200008B907208F
:101AF000EBE7D3E90004CDE9000401981C6804EB8E
:101B00004404154D05EB8404248901FB0400019075
:101B1000009800EB40002C4604EB80004068009CDD
:101B200004EB440405EB84046489009D05EB450542
:101B3000094E06EB85052D8904FB0500019CA0429A
:101B400001D80720C1E7DDE90004C2E90004002054
:101B5000BBE7000030210020982800202DE9F84341
:101B600004460D4600BF4348007800F0040010B959
:101B70000820BDE8F88300BF0CB90E20F9E7206803
:101B8000022806D2206800EB40003B4951F82000B3
:101B900008B90720EDE7206800EB4000364901EB6B
:101BA00080004068216801EB4101334A02EB81016A
:101BB0004989226802EB42022F4B03EB8202128911
:101BC00001FB02006168884201D80720D1E7606804
:101BD000FEF7F4FE08B91020CBE7D4E9001001EBC2
:101BE0004101254A02EB81014968401A216801EB55
:101BF000410102EB81010989B0FBF1F201FB120006
:101C000008B10720B5E7206800EB40001A4901EB56
:101C10008000008995FBF0F100FB115000B90DB96F
:101C20000720A6E7206800EB4000134901EB800085
:101C30000089216801EB41010F4A02EB81014989CA
:101C400000FB01F660684719206800EB4000114670
:101C500001EB8000406800EB0608474501D90720EA
:101C600087E700202B460246214600900320FDF71F
:101C700009F87EE7302100209828002010B54FF0A9
:101C800010204469601C20B100F007F8B4FBF0F0AC
:101C900010BD4FF080504069FAE74FF08050006966
:101CA00080B2704710B5FDF73BF800201949088055
:101CB000FFF7E4FFC41EFFF7F0FF4443164804603B
:101CC00000201649086000BF10E0002100EB400230
:101CD000134B43F8221000EB400203EB8202118108
:101CE00000EB400203EB82025181401C0228ECD33E
:101CF00000200C4908700C4908600C4908600C4928
:101D000008600A48006840F00400084908600020A4
:101D100010BD00000C2100201021002020210020F7
:101D200098280020142100202421002030210020A8
:101D300028210020F8B507460C4615461E4600BF70
:101D40003748007800F0040008B90820F8BD00BF4B
:101D50000CB90E20FAE70FB90E20F7E72068022829
:101D600006D2206800EB40002E4951F8200008B947
:101D70000720EBE7206800EB40002A4901EB8000D8
:101D80004068216801EB4101264A02EB8101498943
:101D9000226802EB4202234B03EB8202128901FB11
:101DA00002006168884201D80720CFE745B120686A
